{
  "transactions": [
    {
      "hash": "0x4f9599690a002121f7a4ecfff67eaad1c61120cff420330707c8045b2fc253be",
      "transactionType": "CALL",
      "contractName": null,
      "contractAddress": "0x779877a7b0d9e8603169ddbd7836e478b4624789",
      "function": "approve(address,uint256)",
      "arguments": [
        "0xd9A6e10A3D7247725851EAffD7690B8BD93FAA57",
        "53167544534880000"
      ],
      "transaction": {
        "from": "0x9d087fc03ae39b088326b67fa3c788236645b717",
        "to": "0x779877a7b0d9e8603169ddbd7836e478b4624789",
        "gas": "0xf961",
        "value": "0x0",
        "input": "0x095ea7b3000000000000000000000000d9a6e10a3d7247725851eaffd7690b8bd93faa5700000000000000000000000000000000000000000000000000bce3999d94cf00",
        "nonce": "0x33a",
        "chainId": "0xaa36a7"
      },
      "additionalContracts": [],
      "isFixedGasLimit": false
    },
    {
      "hash": "0xa9c03770b2458b0cacb03fa482098ca88b11f9d57b6a30bc7412984f7f371563",
      "transactionType": "CALL",
      "contractName": null,
      "contractAddress": "0xdbfdc1e2e4a2858595c3202530517f6dacd55999",
      "function": "approve(address,uint256)",
      "arguments": [
        "0xd9A6e10A3D7247725851EAffD7690B8BD93FAA57",
        "1000"
      ],
      "transaction": {
        "from": "0x9d087fc03ae39b088326b67fa3c788236645b717",
        "to": "0xdbfdc1e2e4a2858595c3202530517f6dacd55999",
        "gas": "0x108a2",
        "value": "0x0",
        "input": "0x095ea7b3000000000000000000000000d9a6e10a3d7247725851eaffd7690b8bd93faa5700000000000000000000000000000000000000000000000000000000000003e8",
        "nonce": "0x33b",
        "chainId": "0xaa36a7"
      },
      "additionalContracts": [],
      "isFixedGasLimit": false
    },
    {
      "hash": "0x17523bcfaacf23afc8c8c660aa84f824a6c23d67300833b549779b396e49303e",
      "transactionType": "CALL",
      "contractName": null,
      "contractAddress": "0xd9a6e10a3d7247725851eaffd7690b8bd93faa57",
      "function": "transferTokensToDestinationChain(uint64,address,uint256,address,address)",
      "arguments": [
        "3478487238524512106",
        "0xdbFdC1E2E4a2858595c3202530517F6dAcd55999",
        "1000",
        "0x9d087fC03ae39b088326b67fA3C788236645b717",
        "0x779877A7B0D9E8603169DdbD7836e478b4624789"
      ],
      "transaction": {
        "from": "0x9d087fc03ae39b088326b67fa3c788236645b717",
        "to": "0xd9a6e10a3d7247725851eaffd7690b8bd93faa57",
        "gas": "0x5c35a",
        "value": "0x0",
        "input": "0x0135f837000000000000000000000000000000000000000000000000304611b6affba76a000000000000000000000000dbfdc1e2e4a2858595c3202530517f6dacd5599900000000000000000000000000000000000000000000000000000000000003e80000000000000000000000009d087fc03ae39b088326b67fa3c788236645b717000000000000000000000000779877a7b0d9e8603169ddbd7836e478b4624789",
        "nonce": "0x33c",
        "chainId": "0xaa36a7"
      },
      "additionalContracts": [],
      "isFixedGasLimit": false
    }
  ],
  "receipts": [
    {
      "status": "0x1",
      "cumulativeGasUsed": "0xb48d",
      "logs": [
        {
          "address": "0x779877a7b0d9e8603169ddbd7836e478b4624789",
          "topics": [
            "0x8c5be1e5ebec7d5bd14f71427d1e84f3dd0314c0f7b2291e5b200ac8c7c3b925",
            "0x0000000000000000000000009d087fc03ae39b088326b67fa3c788236645b717",
            "0x000000000000000000000000d9a6e10a3d7247725851eaffd7690b8bd93faa57"
          ],
          "data": "0x00000000000000000000000000000000000000000000000000bce3999d94cf00",
          "blockHash": "0x23747827dddb754009e3a0b13b439ba9854ce2e08df53c944252d8f0ca95b22a",
          "blockNumber": "0x5a9ab1",
          "transactionHash": "0x4f9599690a002121f7a4ecfff67eaad1c61120cff420330707c8045b2fc253be",
          "transactionIndex": "0x0",
          "logIndex": "0x0",
          "removed": false
        }
      ],
      "logsBloom": "0x00000004000000000000000000000004000000000000000000000000000000000000000000000000000000000000000000000000000000000000000000200000000000000000000800000000000000000010000000000000000000010000000000000000000000000000000000000000000000000000000000000000000000000000000000000001000000000000800000000000000000000000000000000000020000000000000000000000000000000000000000000008000000000000000000000000000000000000000000000000000000000000000100000000000000000010000000000000000000000000000000000000000000000000000000000000",
      "type": "0x0",
      "transactionHash": "0x4f9599690a002121f7a4ecfff67eaad1c61120cff420330707c8045b2fc253be",
      "transactionIndex": "0x0",
      "blockHash": "0x23747827dddb754009e3a0b13b439ba9854ce2e08df53c944252d8f0ca95b22a",
      "blockNumber": "0x5a9ab1",
      "gasUsed": "0xb48d",
      "effectiveGasPrice": "0x174876e800",
      "from": "0x9d087fc03ae39b088326b67fa3c788236645b717",
      "to": "0x779877a7b0d9e8603169ddbd7836e478b4624789",
      "contractAddress": null
    },
    {
      "status": "0x1",
      "cumulativeGasUsed": "0x16980",
      "logs": [
        {
          "address": "0xdbfdc1e2e4a2858595c3202530517f6dacd55999",
          "topics": [
            "0x8c5be1e5ebec7d5bd14f71427d1e84f3dd0314c0f7b2291e5b200ac8c7c3b925",
            "0x0000000000000000000000009d087fc03ae39b088326b67fa3c788236645b717",
            "0x000000000000000000000000d9a6e10a3d7247725851eaffd7690b8bd93faa57"
          ],
          "data": "0x00000000000000000000000000000000000000000000000000000000000003e8",
          "blockHash": "0x23747827dddb754009e3a0b13b439ba9854ce2e08df53c944252d8f0ca95b22a",
          "blockNumber": "0x5a9ab1",
          "transactionHash": "0xa9c03770b2458b0cacb03fa482098ca88b11f9d57b6a30bc7412984f7f371563",
          "transactionIndex": "0x1",
          "logIndex": "0x1",
          "removed": false
        }
      ],
      "logsBloom": "0x00000002000000000000000000000004000000000000000000000000000000000000000000000000000000000000000000000000000000000000000000200000000000000000000800000000000000000010000000000000000000010000000000000000000000000000000000000000000000000000000000000000000000000000000000000001000200000000000000000000000000000000000000000000020000000000000000000000000000000000000000000008000000000000000000000000000000000000000000000000000000000000000000000000000000000010000000000000000000000000000000400000000000000000000000000000",
      "type": "0x0",
      "transactionHash": "0xa9c03770b2458b0cacb03fa482098ca88b11f9d57b6a30bc7412984f7f371563",
      "transactionIndex": "0x1",
      "blockHash": "0x23747827dddb754009e3a0b13b439ba9854ce2e08df53c944252d8f0ca95b22a",
      "blockNumber": "0x5a9ab1",
      "gasUsed": "0xb4f3",
      "effectiveGasPrice": "0x174876e800",
      "from": "0x9d087fc03ae39b088326b67fa3c788236645b717",
      "to": "0xdbfdc1e2e4a2858595c3202530517f6dacd55999",
      "contractAddress": null
    },
    {
      "status": "0x1",
      "cumulativeGasUsed": "0x55a4a",
      "logs": [
        {
          "address": "0xdbfdc1e2e4a2858595c3202530517f6dacd55999",
          "topics": [
            "0xddf252ad1be2c89b69c2b068fc378daa952ba7f163c4a11628f55a4df523b3ef",
            "0x0000000000000000000000009d087fc03ae39b088326b67fa3c788236645b717",
            "0x00000000000000000000000096f8d40bc9354e9a4eb774f0ba043c90d7c2f14d"
          ],
          "data": "0x00000000000000000000000000000000000000000000000000000000000003e8",
          "blockHash": "0x23747827dddb754009e3a0b13b439ba9854ce2e08df53c944252d8f0ca95b22a",
          "blockNumber": "0x5a9ab1",
          "transactionHash": "0x17523bcfaacf23afc8c8c660aa84f824a6c23d67300833b549779b396e49303e",
          "transactionIndex": "0x2",
          "logIndex": "0x2",
          "removed": false
        },
        {
          "address": "0x96f8d40bc9354e9a4eb774f0ba043c90d7c2f14d",
          "topics": [
            "0x9f1ec8c880f76798e7b793325d625e9b60e4082a553c98f42b6cda368dd60008",
            "0x000000000000000000000000d9a6e10a3d7247725851eaffd7690b8bd93faa57"
          ],
          "data": "0x00000000000000000000000000000000000000000000000000000000000003e8",
          "blockHash": "0x23747827dddb754009e3a0b13b439ba9854ce2e08df53c944252d8f0ca95b22a",
          "blockNumber": "0x5a9ab1",
          "transactionHash": "0x17523bcfaacf23afc8c8c660aa84f824a6c23d67300833b549779b396e49303e",
          "transactionIndex": "0x2",
          "logIndex": "0x3",
          "removed": false
        },
        {
          "address": "0x779877a7b0d9e8603169ddbd7836e478b4624789",
          "topics": [
            "0xddf252ad1be2c89b69c2b068fc378daa952ba7f163c4a11628f55a4df523b3ef",
            "0x0000000000000000000000009d087fc03ae39b088326b67fa3c788236645b717",
            "0x000000000000000000000000d9a6e10a3d7247725851eaffd7690b8bd93faa57"
          ],
          "data": "0x00000000000000000000000000000000000000000000000000bce3999d94cf00",
          "blockHash": "0x23747827dddb754009e3a0b13b439ba9854ce2e08df53c944252d8f0ca95b22a",
          "blockNumber": "0x5a9ab1",
          "transactionHash": "0x17523bcfaacf23afc8c8c660aa84f824a6c23d67300833b549779b396e49303e",
          "transactionIndex": "0x2",
          "logIndex": "0x4",
          "removed": false
        },
        {
          "address": "0x779877a7b0d9e8603169ddbd7836e478b4624789",
          "topics": [
            "0x8c5be1e5ebec7d5bd14f71427d1e84f3dd0314c0f7b2291e5b200ac8c7c3b925",
            "0x0000000000000000000000009d087fc03ae39b088326b67fa3c788236645b717",
            "0x000000000000000000000000d9a6e10a3d7247725851eaffd7690b8bd93faa57"
          ],
          "data": "0x0000000000000000000000000000000000000000000000000000000000000000",
          "blockHash": "0x23747827dddb754009e3a0b13b439ba9854ce2e08df53c944252d8f0ca95b22a",
          "blockNumber": "0x5a9ab1",
          "transactionHash": "0x17523bcfaacf23afc8c8c660aa84f824a6c23d67300833b549779b396e49303e",
          "transactionIndex": "0x2",
          "logIndex": "0x5",
          "removed": false
        },
        {
          "address": "0x779877a7b0d9e8603169ddbd7836e478b4624789",
          "topics": [
            "0x8c5be1e5ebec7d5bd14f71427d1e84f3dd0314c0f7b2291e5b200ac8c7c3b925",
            "0x000000000000000000000000d9a6e10a3d7247725851eaffd7690b8bd93faa57",
            "0x0000000000000000000000000bf3de8c5d3e8a2b34d2beeb17abfcebaf363a59"
          ],
          "data": "0x00000000000000000000000000000000000000000000000000bce3999d94cf00",
          "blockHash": "0x23747827dddb754009e3a0b13b439ba9854ce2e08df53c944252d8f0ca95b22a",
          "blockNumber": "0x5a9ab1",
          "transactionHash": "0x17523bcfaacf23afc8c8c660aa84f824a6c23d67300833b549779b396e49303e",
          "transactionIndex": "0x2",
          "logIndex": "0x6",
          "removed": false
        },
        {
          "address": "0x779877a7b0d9e8603169ddbd7836e478b4624789",
          "topics": [
            "0xddf252ad1be2c89b69c2b068fc378daa952ba7f163c4a11628f55a4df523b3ef",
            "0x000000000000000000000000d9a6e10a3d7247725851eaffd7690b8bd93faa57",
            "0x000000000000000000000000e4dd3b16e09c016402585a8adfdb4a18f772a07e"
          ],
          "data": "0x00000000000000000000000000000000000000000000000000bce3999d94cf00",
          "blockHash": "0x23747827dddb754009e3a0b13b439ba9854ce2e08df53c944252d8f0ca95b22a",
          "blockNumber": "0x5a9ab1",
          "transactionHash": "0x17523bcfaacf23afc8c8c660aa84f824a6c23d67300833b549779b396e49303e",
          "transactionIndex": "0x2",
          "logIndex": "0x7",
          "removed": false
        },
        {
          "address": "0x779877a7b0d9e8603169ddbd7836e478b4624789",
          "topics": [
            "0x8c5be1e5ebec7d5bd14f71427d1e84f3dd0314c0f7b2291e5b200ac8c7c3b925",
            "0x000000000000000000000000d9a6e10a3d7247725851eaffd7690b8bd93faa57",
            "0x0000000000000000000000000bf3de8c5d3e8a2b34d2beeb17abfcebaf363a59"
          ],
          "data": "0x0000000000000000000000000000000000000000000000000000000000000000",
          "blockHash": "0x23747827dddb754009e3a0b13b439ba9854ce2e08df53c944252d8f0ca95b22a",
          "blockNumber": "0x5a9ab1",
          "transactionHash": "0x17523bcfaacf23afc8c8c660aa84f824a6c23d67300833b549779b396e49303e",
          "transactionIndex": "0x2",
          "logIndex": "0x8",
          "removed": false
        },
        {
          "address": "0xe4dd3b16e09c016402585a8adfdb4a18f772a07e",
          "topics": [
            "0xd0c3c799bf9e2639de44391e7f524d229b2b55f5b1ea94b2bf7da42f7243dddd"
          ],
          "data": "0x0000000000000000000000000000000000000000000000000000000000000020000000000000000000000000000000000000000000000000de41ba4fc9d91ad9000000000000000000000000d9a6e10a3d7247725851eaffd7690b8bd93faa57000000000000000000000000c201125662bddb9a52193e563345c25ccd6641b80000000000000000000000000000000000000000000000000000000000026fae00000000000000000000000000000000000000000000000000000000000493e000000000000000000000000000000000000000000000000000000000000000000000000000000000000000000000000000000000000000000000000000000001000000000000000000000000779877a7b0d9e8603169ddbd7836e478b462478900000000000000000000000000000000000000000000000000bce3999d94cf0000000000000000000000000000000000000000000000000000000000000001a00000000000000000000000000000000000000000000000000000000000000220000000000000000000000000000000000000000000000000000000000000024040c7ca794c021c1abf741e727291ac470ea9e7b30479621d5d61fdb0d0cb00cc00000000000000000000000000000000000000000000000000000000000000600000000000000000000000009d087fc03ae39b088326b67fa3c788236645b7170000000000000000000000008b6f6816745eb409f0d8a2eed3e9dd6fb437794000000000000000000000000000000000000000000000000000000000000003e800000000000000000000000000000000000000000000000000000000000000000000000000000000000000000000000000000000000000000000000000000000",
          "blockHash": "0x23747827dddb754009e3a0b13b439ba9854ce2e08df53c944252d8f0ca95b22a",
          "blockNumber": "0x5a9ab1",
          "transactionHash": "0x17523bcfaacf23afc8c8c660aa84f824a6c23d67300833b549779b396e49303e",
          "transactionIndex": "0x2",
          "logIndex": "0x9",
          "removed": false
        },
        {
          "address": "0xd9a6e10a3d7247725851eaffd7690b8bd93faa57",
          "topics": [
            "0xc5f5ab18d19b8e46112af8a6edac567a88c72e33ecb2f629d1c7b0a2996fce05",
            "0x40c7ca794c021c1abf741e727291ac470ea9e7b30479621d5d61fdb0d0cb00cc",
            "0x0000000000000000000000009d087fc03ae39b088326b67fa3c788236645b717",
            "0x0000000000000000000000009d087fc03ae39b088326b67fa3c788236645b717"
          ],
          "data": "0x",
          "blockHash": "0x23747827dddb754009e3a0b13b439ba9854ce2e08df53c944252d8f0ca95b22a",
          "blockNumber": "0x5a9ab1",
          "transactionHash": "0x17523bcfaacf23afc8c8c660aa84f824a6c23d67300833b549779b396e49303e",
          "transactionIndex": "0x2",
          "logIndex": "0xa",
          "removed": false
        },
        {
          "address": "0xd9a6e10a3d7247725851eaffd7690b8bd93faa57",
          "topics": [
            "0x825417000078bf0b1ecfe352a3cc7107c8e5c834554392c1d0e62a8d6aa7d19a",
            "0x000000000000000000000000dbfdc1e2e4a2858595c3202530517f6dacd55999",
            "0x00000000000000000000000096f8d40bc9354e9a4eb774f0ba043c90d7c2f14d",
            "0x000000000000000000000000000000000000000000000000304611b6affba76a"
          ],
          "data": "0x0000000000000000000000008b6f6816745eb409f0d8a2eed3e9dd6fb437794000000000000000000000000000000000000000000000000000000000000003e800000000000000000000000000000000000000000000000000bce3999d94cf00",
          "blockHash": "0x23747827dddb754009e3a0b13b439ba9854ce2e08df53c944252d8f0ca95b22a",
          "blockNumber": "0x5a9ab1",
          "transactionHash": "0x17523bcfaacf23afc8c8c660aa84f824a6c23d67300833b549779b396e49303e",
          "transactionIndex": "0x2",
          "logIndex": "0xb",
          "removed": false
        }
      ],
      "logsBloom": "0x0000000600004802000000000000000400000000004000000000000000000000000000008400000000000000000000000000200008000000000000000020000a800000000400000800000008040000000010000000401000000000010000000000100000000100000000000000000000000000000000000000400010000000000080000000000001000200001000810010000000000000400000000000000000120000000000080400000000800000000000000000000008000104000000000000000002000000001000000000000000004000000000000100000000080000000110008000000000000000010000000004400000000000000000000000200000",
      "type": "0x0",
      "transactionHash": "0x17523bcfaacf23afc8c8c660aa84f824a6c23d67300833b549779b396e49303e",
      "transactionIndex": "0x2",
      "blockHash": "0x23747827dddb754009e3a0b13b439ba9854ce2e08df53c944252d8f0ca95b22a",
      "blockNumber": "0x5a9ab1",
      "gasUsed": "0x3f0ca",
      "effectiveGasPrice": "0x174876e800",
      "from": "0x9d087fc03ae39b088326b67fa3c788236645b717",
      "to": "0xd9a6e10a3d7247725851eaffd7690b8bd93faa57",
      "contractAddress": null
    }
  ],
  "libraries": [],
  "pending": [],
  "returns": {},
  "timestamp": 1716162254,
  "chain": 11155111,
  "commit": "d24fcda"
}