{
  "transactions": [
    {
      "hash": "0xc44b027db1a8d2a34098e11670134059a45947c07b5de2e973179ca703a80a81",
      "transactionType": "CALL",
      "contractName": null,
      "contractAddress": "0x8b6f6816745eb409f0d8a2eed3e9dd6fb4377940",
      "function": "mint(address,uint256)",
      "arguments": [
        "0x9d087fC03ae39b088326b67fA3C788236645b717",
        "1000"
      ],
      "transaction": {
        "from": "0x9d087fc03ae39b088326b67fa3c788236645b717",
        "to": "0x8b6f6816745eb409f0d8a2eed3e9dd6fb4377940",
        "gas": "0x15b34",
        "value": "0x0",
        "input": "0x40c10f190000000000000000000000009d087fc03ae39b088326b67fa3c788236645b71700000000000000000000000000000000000000000000000000000000000003e8",
        "nonce": "0x73",
        "chainId": "0x66eee"
      },
      "additionalContracts": [],
      "isFixedGasLimit": false
    },
    {
      "hash": "0x28357274aa75c3e2152ef4b878515b6c8d60354141f4448ecd93d8c7513f6e6e",
      "transactionType": "CALL",
      "contractName": null,
      "contractAddress": "0xb1d4538b4571d411f07960ef2838ce337fe1e80e",
      "function": "approve(address,uint256)",
      "arguments": [
        "0xc201125662bdDB9A52193e563345C25CcD6641b8",
        "63503744147320032"
      ],
      "transaction": {
        "from": "0x9d087fc03ae39b088326b67fa3c788236645b717",
        "to": "0xb1d4538b4571d411f07960ef2838ce337fe1e80e",
        "gas": "0xeac6",
        "value": "0x0",
        "input": "0x095ea7b3000000000000000000000000c201125662bddb9a52193e563345c25ccd6641b800000000000000000000000000000000000000000000000000e19c519fceece0",
        "nonce": "0x74",
        "chainId": "0x66eee"
      },
      "additionalContracts": [],
      "isFixedGasLimit": false
    },
    {
      "hash": "0xfa69f12b7742661a39c915bb44aed7bcf841bc1eea72f59f0e1890ae3513dd2b",
      "transactionType": "CALL",
      "contractName": null,
      "contractAddress": "0x8b6f6816745eb409f0d8a2eed3e9dd6fb4377940",
      "function": "approve(address,uint256)",
      "arguments": [
        "0xc201125662bdDB9A52193e563345C25CcD6641b8",
        "1000"
      ],
      "transaction": {
        "from": "0x9d087fc03ae39b088326b67fa3c788236645b717",
        "to": "0x8b6f6816745eb409f0d8a2eed3e9dd6fb4377940",
        "gas": "0xeb3b",
        "value": "0x0",
        "input": "0x095ea7b3000000000000000000000000c201125662bddb9a52193e563345c25ccd6641b800000000000000000000000000000000000000000000000000000000000003e8",
        "nonce": "0x75",
        "chainId": "0x66eee"
      },
      "additionalContracts": [],
      "isFixedGasLimit": false
    },
    {
      "hash": "0x96d0ffe26482484f40a8f85ac7cc8bb92a981ac52031672445c48b1d70bc7d0f",
      "transactionType": "CALL",
      "contractName": null,
      "contractAddress": "0xc201125662bddb9a52193e563345c25ccd6641b8",
      "function": "transferTokensToDestinationChain(uint64,address,uint256,address,address)",
      "arguments": [
        "16015286601757825753",
        "0x8B6F6816745eB409f0d8A2eEd3E9dD6Fb4377940",
        "1000",
        "0x9d087fC03ae39b088326b67fA3C788236645b717",
        "0xb1D4538B4571d411F07960EF2838Ce337FE1E80E"
      ],
      "transaction": {
        "from": "0x9d087fc03ae39b088326b67fa3c788236645b717",
        "to": "0xc201125662bddb9a52193e563345c25ccd6641b8",
        "gas": "0x4f70a",
        "value": "0x0",
        "input": "0x0135f837000000000000000000000000000000000000000000000000de41ba4fc9d91ad90000000000000000000000008b6f6816745eb409f0d8a2eed3e9dd6fb437794000000000000000000000000000000000000000000000000000000000000003e80000000000000000000000009d087fc03ae39b088326b67fa3c788236645b717000000000000000000000000b1d4538b4571d411f07960ef2838ce337fe1e80e",
        "nonce": "0x76",
        "chainId": "0x66eee"
      },
      "additionalContracts": [],
      "isFixedGasLimit": false
    }
  ],
  "receipts": [
    {
      "status": "0x1",
      "cumulativeGasUsed": "0x2f2bd",
      "logs": [
        {
          "address": "0x8b6f6816745eb409f0d8a2eed3e9dd6fb4377940",
          "topics": [
            "0xddf252ad1be2c89b69c2b068fc378daa952ba7f163c4a11628f55a4df523b3ef",
            "0x0000000000000000000000000000000000000000000000000000000000000000",
            "0x0000000000000000000000009d087fc03ae39b088326b67fa3c788236645b717"
          ],
          "data": "0x00000000000000000000000000000000000000000000000000000000000003e8",
          "blockHash": "0x445be71182d038a97d0219e937e104d4461739cf9752bb67e335576b1fe87b11",
          "blockNumber": "0x2bb8595",
          "transactionHash": "0xc44b027db1a8d2a34098e11670134059a45947c07b5de2e973179ca703a80a81",
          "transactionIndex": "0x2",
          "logIndex": "0x3",
          "removed": false
        }
      ],
      "logsBloom": "0x00000000000000000000000000000004000000000000000000000000000000000000000000000000000000000000000000000000000000000000000000000000000000000000000000000008000000000010000000000000000000000000000000000000020000000000000000100800000010000000000000000010000000000000000000000000000000000000000000000000000000000000080000000000000000000000000000000000000000000000000000000008000000000000000000000002000000000000000000000000000000000000000000000000000020000000000000000000000000000000000000000000000000000000000000000000",
      "type": "0x0",
      "transactionHash": "0xc44b027db1a8d2a34098e11670134059a45947c07b5de2e973179ca703a80a81",
      "transactionIndex": "0x2",
      "blockHash": "0x445be71182d038a97d0219e937e104d4461739cf9752bb67e335576b1fe87b11",
      "blockNumber": "0x2bb8595",
      "gasUsed": "0x10b15",
      "effectiveGasPrice": "0x17fce650",
      "from": "0x9d087fc03ae39b088326b67fa3c788236645b717",
      "to": "0x8b6f6816745eb409f0d8a2eed3e9dd6fb4377940",
      "contractAddress": null,
      "gasUsedForL1": "0x0",
      "l1BlockNumber": "0x5a9acd"
    },
    {
      "status": "0x1",
      "cumulativeGasUsed": "0x6d145",
      "logs": [
        {
          "address": "0xb1d4538b4571d411f07960ef2838ce337fe1e80e",
          "topics": [
            "0x8c5be1e5ebec7d5bd14f71427d1e84f3dd0314c0f7b2291e5b200ac8c7c3b925",
            "0x0000000000000000000000009d087fc03ae39b088326b67fa3c788236645b717",
            "0x000000000000000000000000c201125662bddb9a52193e563345c25ccd6641b8"
          ],
          "data": "0x00000000000000000000000000000000000000000000000000e19c519fceece0",
          "blockHash": "0xda87a2c30c9ad247cf294bb2d91b8a62522a6780a03a80549e5a47e924a5772e",
          "blockNumber": "0x2bb8598",
          "transactionHash": "0x28357274aa75c3e2152ef4b878515b6c8d60354141f4448ecd93d8c7513f6e6e",
          "transactionIndex": "0x5",
          "logIndex": "0xa",
          "removed": false
        }
      ],
      "logsBloom": "0x00000000000000000000000000000004000000000000000000000000000000000000000000000000000000000000000000000000000000000000000000200000000000000000000000000000000000000010000000000000000000000000000000000000000000000000000000000000000000000000000000000000000000000000080000000010000000000000000000000000000000040000000000000000020000000000000000000000000000000000000000000008000000000000000000000000000000000000000000000000000800000000000000000000000000000010000000000000000000000000000000000000000000000000010000000001",
      "type": "0x0",
      "transactionHash": "0x28357274aa75c3e2152ef4b878515b6c8d60354141f4448ecd93d8c7513f6e6e",
      "transactionIndex": "0x5",
      "blockHash": "0xda87a2c30c9ad247cf294bb2d91b8a62522a6780a03a80549e5a47e924a5772e",
      "blockNumber": "0x2bb8598",
      "gasUsed": "0xb499",
      "effectiveGasPrice": "0x17e76280",
      "from": "0x9d087fc03ae39b088326b67fa3c788236645b717",
      "to": "0xb1d4538b4571d411f07960ef2838ce337fe1e80e",
      "contractAddress": null,
      "gasUsedForL1": "0x0",
      "l1BlockNumber": "0x5a9acd"
    },
    {
      "status": "0x1",
      "cumulativeGasUsed": "0x497e3",
      "logs": [
        {
          "address": "0x8b6f6816745eb409f0d8a2eed3e9dd6fb4377940",
          "topics": [
            "0x8c5be1e5ebec7d5bd14f71427d1e84f3dd0314c0f7b2291e5b200ac8c7c3b925",
            "0x0000000000000000000000009d087fc03ae39b088326b67fa3c788236645b717",
            "0x000000000000000000000000c201125662bddb9a52193e563345c25ccd6641b8"
          ],
          "data": "0x00000000000000000000000000000000000000000000000000000000000003e8",
          "blockHash": "0x133dbae2d7a5057884388225316b8499cfd3213394282b606e97712d62cb1338",
          "blockNumber": "0x2bb859b",
          "transactionHash": "0xfa69f12b7742661a39c915bb44aed7bcf841bc1eea72f59f0e1890ae3513dd2b",
          "transactionIndex": "0x3",
          "logIndex": "0x7",
          "removed": false
        }
      ],
      "logsBloom": "0x00000000000000000000000000000004000000000000000000000000000000000000000000000000000000000000000000000000000000000000000000200000000000000000000000000000000000000010000000000000000000000000000000000000000000000000000000100000000010000000000000000000000000000000000000000000000000000000000000000000000000040000080000000000020000000000000000000000000000000000000000000008000000000000000000000000000000000000000000000000000800000000000000000000000000000010000000000000000000000000000000000000000000000000010000000000",
      "type": "0x0",
      "transactionHash": "0xfa69f12b7742661a39c915bb44aed7bcf841bc1eea72f59f0e1890ae3513dd2b",
      "transactionIndex": "0x3",
      "blockHash": "0x133dbae2d7a5057884388225316b8499cfd3213394282b606e97712d62cb1338",
      "blockNumber": "0x2bb859b",
      "gasUsed": "0xb4f3",
      "effectiveGasPrice": "0x17d05810",
      "from": "0x9d087fc03ae39b088326b67fa3c788236645b717",
      "to": "0x8b6f6816745eb409f0d8a2eed3e9dd6fb4377940",
      "contractAddress": null,
      "gasUsedForL1": "0x0",
      "l1BlockNumber": "0x5a9acd"
    },
    {
      "status": "0x1",
      "cumulativeGasUsed": "0x57fde",
      "logs": [
        {
          "address": "0x8b6f6816745eb409f0d8a2eed3e9dd6fb4377940",
          "topics": [
            "0xddf252ad1be2c89b69c2b068fc378daa952ba7f163c4a11628f55a4df523b3ef",
            "0x0000000000000000000000009d087fc03ae39b088326b67fa3c788236645b717",
            "0x0000000000000000000000004c964e79b8aec623bedf75fe43d998179f2c52f7"
          ],
          "data": "0x00000000000000000000000000000000000000000000000000000000000003e8",
          "blockHash": "0x273080fc96e1f3fb0bd522f84326a0558bbad6dc4bbcdab74a530432b38fbddb",
          "blockNumber": "0x2bb859e",
          "transactionHash": "0x96d0ffe26482484f40a8f85ac7cc8bb92a981ac52031672445c48b1d70bc7d0f",
          "transactionIndex": "0x2",
          "logIndex": "0x3",
          "removed": false
        },
        {
          "address": "0x8b6f6816745eb409f0d8a2eed3e9dd6fb4377940",
          "topics": [
            "0xddf252ad1be2c89b69c2b068fc378daa952ba7f163c4a11628f55a4df523b3ef",
            "0x0000000000000000000000004c964e79b8aec623bedf75fe43d998179f2c52f7",
            "0x0000000000000000000000000000000000000000000000000000000000000000"
          ],
          "data": "0x00000000000000000000000000000000000000000000000000000000000003e8",
          "blockHash": "0x273080fc96e1f3fb0bd522f84326a0558bbad6dc4bbcdab74a530432b38fbddb",
          "blockNumber": "0x2bb859e",
          "transactionHash": "0x96d0ffe26482484f40a8f85ac7cc8bb92a981ac52031672445c48b1d70bc7d0f",
          "transactionIndex": "0x2",
          "logIndex": "0x4",
          "removed": false
        },
        {
          "address": "0x4c964e79b8aec623bedf75fe43d998179f2c52f7",
          "topics": [
            "0x696de425f79f4a40bc6d2122ca50507f0efbeabbff86a84871b7196ab8ea8df7",
            "0x000000000000000000000000c201125662bddb9a52193e563345c25ccd6641b8"
          ],
          "data": "0x00000000000000000000000000000000000000000000000000000000000003e8",
          "blockHash": "0x273080fc96e1f3fb0bd522f84326a0558bbad6dc4bbcdab74a530432b38fbddb",
          "blockNumber": "0x2bb859e",
          "transactionHash": "0x96d0ffe26482484f40a8f85ac7cc8bb92a981ac52031672445c48b1d70bc7d0f",
          "transactionIndex": "0x2",
          "logIndex": "0x5",
          "removed": false
        },
        {
          "address": "0xb1d4538b4571d411f07960ef2838ce337fe1e80e",
          "topics": [
            "0xddf252ad1be2c89b69c2b068fc378daa952ba7f163c4a11628f55a4df523b3ef",
            "0x0000000000000000000000009d087fc03ae39b088326b67fa3c788236645b717",
            "0x000000000000000000000000c201125662bddb9a52193e563345c25ccd6641b8"
          ],
          "data": "0x00000000000000000000000000000000000000000000000000e19c519fceece0",
          "blockHash": "0x273080fc96e1f3fb0bd522f84326a0558bbad6dc4bbcdab74a530432b38fbddb",
          "blockNumber": "0x2bb859e",
          "transactionHash": "0x96d0ffe26482484f40a8f85ac7cc8bb92a981ac52031672445c48b1d70bc7d0f",
          "transactionIndex": "0x2",
          "logIndex": "0x6",
          "removed": false
        },
        {
          "address": "0xb1d4538b4571d411f07960ef2838ce337fe1e80e",
          "topics": [
            "0x8c5be1e5ebec7d5bd14f71427d1e84f3dd0314c0f7b2291e5b200ac8c7c3b925",
            "0x0000000000000000000000009d087fc03ae39b088326b67fa3c788236645b717",
            "0x000000000000000000000000c201125662bddb9a52193e563345c25ccd6641b8"
          ],
          "data": "0x0000000000000000000000000000000000000000000000000000000000000000",
          "blockHash": "0x273080fc96e1f3fb0bd522f84326a0558bbad6dc4bbcdab74a530432b38fbddb",
          "blockNumber": "0x2bb859e",
          "transactionHash": "0x96d0ffe26482484f40a8f85ac7cc8bb92a981ac52031672445c48b1d70bc7d0f",
          "transactionIndex": "0x2",
          "logIndex": "0x7",
          "removed": false
        },
        {
          "address": "0xb1d4538b4571d411f07960ef2838ce337fe1e80e",
          "topics": [
            "0x8c5be1e5ebec7d5bd14f71427d1e84f3dd0314c0f7b2291e5b200ac8c7c3b925",
            "0x000000000000000000000000c201125662bddb9a52193e563345c25ccd6641b8",
            "0x0000000000000000000000002a9c5afb0d0e4bab2bcdae109ec4b0c4be15a165"
          ],
          "data": "0x00000000000000000000000000000000000000000000000000e19c519fceece0",
          "blockHash": "0x273080fc96e1f3fb0bd522f84326a0558bbad6dc4bbcdab74a530432b38fbddb",
          "blockNumber": "0x2bb859e",
          "transactionHash": "0x96d0ffe26482484f40a8f85ac7cc8bb92a981ac52031672445c48b1d70bc7d0f",
          "transactionIndex": "0x2",
          "logIndex": "0x8",
          "removed": false
        },
        {
          "address": "0xb1d4538b4571d411f07960ef2838ce337fe1e80e",
          "topics": [
            "0xddf252ad1be2c89b69c2b068fc378daa952ba7f163c4a11628f55a4df523b3ef",
            "0x000000000000000000000000c201125662bddb9a52193e563345c25ccd6641b8",
            "0x0000000000000000000000004205e1ca0202a248a5d42f5975a8fe56f3e302e9"
          ],
          "data": "0x00000000000000000000000000000000000000000000000000e19c519fceece0",
          "blockHash": "0x273080fc96e1f3fb0bd522f84326a0558bbad6dc4bbcdab74a530432b38fbddb",
          "blockNumber": "0x2bb859e",
          "transactionHash": "0x96d0ffe26482484f40a8f85ac7cc8bb92a981ac52031672445c48b1d70bc7d0f",
          "transactionIndex": "0x2",
          "logIndex": "0x9",
          "removed": false
        },
        {
          "address": "0xb1d4538b4571d411f07960ef2838ce337fe1e80e",
          "topics": [
            "0x8c5be1e5ebec7d5bd14f71427d1e84f3dd0314c0f7b2291e5b200ac8c7c3b925",
            "0x000000000000000000000000c201125662bddb9a52193e563345c25ccd6641b8",
            "0x0000000000000000000000002a9c5afb0d0e4bab2bcdae109ec4b0c4be15a165"
          ],
          "data": "0x0000000000000000000000000000000000000000000000000000000000000000",
          "blockHash": "0x273080fc96e1f3fb0bd522f84326a0558bbad6dc4bbcdab74a530432b38fbddb",
          "blockNumber": "0x2bb859e",
          "transactionHash": "0x96d0ffe26482484f40a8f85ac7cc8bb92a981ac52031672445c48b1d70bc7d0f",
          "transactionIndex": "0x2",
          "logIndex": "0xa",
          "removed": false
        },
        {
          "address": "0x4205e1ca0202a248a5d42f5975a8fe56f3e302e9",
          "topics": [
            "0xd0c3c799bf9e2639de44391e7f524d229b2b55f5b1ea94b2bf7da42f7243dddd"
          ],
          "data": "0x0000000000000000000000000000000000000000000000000000000000000020000000000000000000000000000000000000000000000000304611b6affba76a000000000000000000000000c201125662bddb9a52193e563345c25ccd6641b8000000000000000000000000d9a6e10a3d7247725851eaffd7690b8bd93faa570000000000000000000000000000000000000000000000000000000000007b9600000000000000000000000000000000000000000000000000000000000493e000000000000000000000000000000000000000000000000000000000000000000000000000000000000000000000000000000000000000000000000000000001000000000000000000000000b1d4538b4571d411f07960ef2838ce337fe1e80e00000000000000000000000000000000000000000000000000e19c519fceece000000000000000000000000000000000000000000000000000000000000001a000000000000000000000000000000000000000000000000000000000000002200000000000000000000000000000000000000000000000000000000000000240e5f52d8430656373ddfedf638bb11c8309a6d825622d5aac74dbeda6df8511fe00000000000000000000000000000000000000000000000000000000000000600000000000000000000000009d087fc03ae39b088326b67fa3c788236645b717000000000000000000000000dbfdc1e2e4a2858595c3202530517f6dacd5599900000000000000000000000000000000000000000000000000000000000003e800000000000000000000000000000000000000000000000000000000000000000000000000000000000000000000000000000000000000000000000000000000",
          "blockHash": "0x273080fc96e1f3fb0bd522f84326a0558bbad6dc4bbcdab74a530432b38fbddb",
          "blockNumber": "0x2bb859e",
          "transactionHash": "0x96d0ffe26482484f40a8f85ac7cc8bb92a981ac52031672445c48b1d70bc7d0f",
          "transactionIndex": "0x2",
          "logIndex": "0xb",
          "removed": false
        },
        {
          "address": "0xc201125662bddb9a52193e563345c25ccd6641b8",
          "topics": [
            "0xc5f5ab18d19b8e46112af8a6edac567a88c72e33ecb2f629d1c7b0a2996fce05",
            "0xe5f52d8430656373ddfedf638bb11c8309a6d825622d5aac74dbeda6df8511fe",
            "0x0000000000000000000000009d087fc03ae39b088326b67fa3c788236645b717",
            "0x0000000000000000000000009d087fc03ae39b088326b67fa3c788236645b717"
          ],
          "data": "0x",
          "blockHash": "0x273080fc96e1f3fb0bd522f84326a0558bbad6dc4bbcdab74a530432b38fbddb",
          "blockNumber": "0x2bb859e",
          "transactionHash": "0x96d0ffe26482484f40a8f85ac7cc8bb92a981ac52031672445c48b1d70bc7d0f",
          "transactionIndex": "0x2",
          "logIndex": "0xc",
          "removed": false
        },
        {
          "address": "0xc201125662bddb9a52193e563345c25ccd6641b8",
          "topics": [
            "0x825417000078bf0b1ecfe352a3cc7107c8e5c834554392c1d0e62a8d6aa7d19a",
            "0x0000000000000000000000008b6f6816745eb409f0d8a2eed3e9dd6fb4377940",
            "0x0000000000000000000000004c964e79b8aec623bedf75fe43d998179f2c52f7",
            "0x000000000000000000000000000000000000000000000000de41ba4fc9d91ad9"
          ],
          "data": "0x000000000000000000000000dbfdc1e2e4a2858595c3202530517f6dacd5599900000000000000000000000000000000000000000000000000000000000003e800000000000000000000000000000000000000000000000000e19c519fceece0",
          "blockHash": "0x273080fc96e1f3fb0bd522f84326a0558bbad6dc4bbcdab74a530432b38fbddb",
          "blockNumber": "0x2bb859e",
          "transactionHash": "0x96d0ffe26482484f40a8f85ac7cc8bb92a981ac52031672445c48b1d70bc7d0f",
          "transactionIndex": "0x2",
          "logIndex": "0xd",
          "removed": false
        }
      ],
      "logsBloom": "0x00000000000000000800000000000004000000010000000000000000020000000000000000084000002000000002000000000000200000000000000000200008000000000000000000000008000000008010000000400000000000000000020000100020060000000000000000110a02000010000800000000000010000000800000080000000010000008000000000002000020000000040000080000000000020000000000000400000000800000000000000000200008000104001000000000000002000000000000000000440000000800000000000010000000000020000010008000000002000080080000000004000000000000000000010000020801",
      "type": "0x0",
      "transactionHash": "0x96d0ffe26482484f40a8f85ac7cc8bb92a981ac52031672445c48b1d70bc7d0f",
      "transactionIndex": "0x2",
      "blockHash": "0x273080fc96e1f3fb0bd522f84326a0558bbad6dc4bbcdab74a530432b38fbddb",
      "blockNumber": "0x2bb859e",
      "gasUsed": "0x39836",
      "effectiveGasPrice": "0x17ae7830",
      "from": "0x9d087fc03ae39b088326b67fa3c788236645b717",
      "to": "0xc201125662bddb9a52193e563345c25ccd6641b8",
      "contractAddress": null,
      "gasUsedForL1": "0x0",
      "l1BlockNumber": "0x5a9acd"
    }
  ],
  "libraries": [],
  "pending": [],
  "returns": {},
  "timestamp": 1716162627,
  "chain": 421614,
  "commit": "d24fcda"
}