{
  "transactions": [
    {
      "hash": "0x101e5ac6347d075626e5c140186a6ea435188651b5fa2a280458cac196877dac",
      "transactionType": "CALL",
      "contractName": null,
      "contractAddress": "0x59cc0a2f462aca8b8d2363032b0bbb719c6f0b93",
      "function": "mint(address,uint256)",
      "arguments": [
        "0x9d087fC03ae39b088326b67fA3C788236645b717",
        "1000"
      ],
      "transaction": {
        "from": "0x9d087fc03ae39b088326b67fa3c788236645b717",
        "to": "0x59cc0a2f462aca8b8d2363032b0bbb719c6f0b93",
        "gas": "0xb860",
        "value": "0x0",
        "input": "0x40c10f190000000000000000000000009d087fc03ae39b088326b67fa3c788236645b71700000000000000000000000000000000000000000000000000000000000003e8",
        "nonce": "0x1eb",
        "chainId": "0xa869"
      },
      "additionalContracts": [],
      "isFixedGasLimit": false
    },
    {
      "hash": "0x916e6e9e2460d1b75cd0974959aa77f56d2c36fe63277be81093d1b2dc9018e4",
      "transactionType": "CALL",
      "contractName": null,
      "contractAddress": "0x0b9d5d9136855f6fec3c0993fee6e9ce8a297846",
      "function": "approve(address,uint256)",
      "arguments": [
        "0x2E685f521F351781815aF1E075B4Bbd831693368",
        "66214847509942464"
      ],
      "transaction": {
        "from": "0x9d087fc03ae39b088326b67fa3c788236645b717",
        "to": "0x0b9d5d9136855f6fec3c0993fee6e9ce8a297846",
        "gas": "0xfa22",
        "value": "0x0",
        "input": "0x095ea7b30000000000000000000000002e685f521f351781815af1e075b4bbd83169336800000000000000000000000000000000000000000000000000eb3e0d90afd0c0",
        "nonce": "0x1ec",
        "chainId": "0xa869"
      },
      "additionalContracts": [],
      "isFixedGasLimit": false
    },
    {
      "hash": "0xefceba0e496d93085edb22eb47ab378fd7a479ab766a279b06b9dd469dacaf21",
      "transactionType": "CALL",
      "contractName": null,
      "contractAddress": "0x59cc0a2f462aca8b8d2363032b0bbb719c6f0b93",
      "function": "approve(address,uint256)",
      "arguments": [
        "0x2E685f521F351781815aF1E075B4Bbd831693368",
        "1000"
      ],
      "transaction": {
        "from": "0x9d087fc03ae39b088326b67fa3c788236645b717",
        "to": "0x59cc0a2f462aca8b8d2363032b0bbb719c6f0b93",
        "gas": "0x108a2",
        "value": "0x0",
        "input": "0x095ea7b30000000000000000000000002e685f521f351781815af1e075b4bbd83169336800000000000000000000000000000000000000000000000000000000000003e8",
        "nonce": "0x1ed",
        "chainId": "0xa869"
      },
      "additionalContracts": [],
      "isFixedGasLimit": false
    },
    {
      "hash": "0x2c6fa5157b41509cadd1696bde66e9b75f412d48813ebe32101951e9a2cd608f",
      "transactionType": "CALL",
      "contractName": null,
      "contractAddress": "0x2e685f521f351781815af1e075b4bbd831693368",
      "function": "transferTokensToDestinationChain(uint64,address,uint256,address,address)",
      "arguments": [
        "16015286601757825753",
        "0x59cc0a2F462aca8b8d2363032b0BBb719c6F0b93",
        "1000",
        "0x9d087fC03ae39b088326b67fA3C788236645b717",
        "0x0b9d5D9136855f6FEc3c0993feE6E9CE8a297846"
      ],
      "transaction": {
        "from": "0x9d087fc03ae39b088326b67fa3c788236645b717",
        "to": "0x2e685f521f351781815af1e075b4bbd831693368",
        "gas": "0x4e96f",
        "value": "0x0",
        "input": "0x0135f837000000000000000000000000000000000000000000000000de41ba4fc9d91ad900000000000000000000000059cc0a2f462aca8b8d2363032b0bbb719c6f0b9300000000000000000000000000000000000000000000000000000000000003e80000000000000000000000009d087fc03ae39b088326b67fa3c788236645b7170000000000000000000000000b9d5d9136855f6fec3c0993fee6e9ce8a297846",
        "nonce": "0x1ee",
        "chainId": "0xa869"
      },
      "additionalContracts": [],
      "isFixedGasLimit": false
    }
  ],
  "receipts": [
    {
      "status": "0x1",
      "cumulativeGasUsed": "0x857d",
      "logs": [
        {
          "address": "0x59cc0a2f462aca8b8d2363032b0bbb719c6f0b93",
          "topics": [
            "0xddf252ad1be2c89b69c2b068fc378daa952ba7f163c4a11628f55a4df523b3ef",
            "0x0000000000000000000000000000000000000000000000000000000000000000",
            "0x0000000000000000000000009d087fc03ae39b088326b67fa3c788236645b717"
          ],
          "data": "0x00000000000000000000000000000000000000000000000000000000000003e8",
          "blockHash": "0x646d7161ce8fcd2c2db2809a41b9edaa85984a54cb6f0f1741489b736303850e",
          "blockNumber": "0x1fa0840",
          "transactionHash": "0x101e5ac6347d075626e5c140186a6ea435188651b5fa2a280458cac196877dac",
          "transactionIndex": "0x0",
          "logIndex": "0x0",
          "removed": false
        }
      ],
      "logsBloom": "0x00000000000000000000000000000004000000000000000000000000000000000000000000000000000000000000000000000000000000000000000000000000000000000000000000000008000000000010000000000000000000000000000000000000020000000010000000000800000000000000000000000010000000000000000000000000000000000000000000000000000000000000000000000000000000000000000000000000000000000000000000000008000000000000000000000002000000000000000000000000000000000000080000000000000020000000000000000000000000000000000010000000000000000000000000000000",
      "type": "0x0",
      "transactionHash": "0x101e5ac6347d075626e5c140186a6ea435188651b5fa2a280458cac196877dac",
      "transactionIndex": "0x0",
      "blockHash": "0x646d7161ce8fcd2c2db2809a41b9edaa85984a54cb6f0f1741489b736303850e",
      "blockNumber": "0x1fa0840",
      "gasUsed": "0x857d",
      "effectiveGasPrice": "0x174876e800",
      "from": "0x9d087fc03ae39b088326b67fa3c788236645b717",
      "to": "0x59cc0a2f462aca8b8d2363032b0bbb719c6f0b93",
      "contractAddress": null
    },
    {
      "status": "0x1",
      "cumulativeGasUsed": "0x13a95",
      "logs": [
        {
          "address": "0x0b9d5d9136855f6fec3c0993fee6e9ce8a297846",
          "topics": [
            "0x8c5be1e5ebec7d5bd14f71427d1e84f3dd0314c0f7b2291e5b200ac8c7c3b925",
            "0x0000000000000000000000009d087fc03ae39b088326b67fa3c788236645b717",
            "0x0000000000000000000000002e685f521f351781815af1e075b4bbd831693368"
          ],
          "data": "0x00000000000000000000000000000000000000000000000000eb3e0d90afd0c0",
          "blockHash": "0x646d7161ce8fcd2c2db2809a41b9edaa85984a54cb6f0f1741489b736303850e",
          "blockNumber": "0x1fa0840",
          "transactionHash": "0x916e6e9e2460d1b75cd0974959aa77f56d2c36fe63277be81093d1b2dc9018e4",
          "transactionIndex": "0x1",
          "logIndex": "0x1",
          "removed": false
        }
      ],
      "logsBloom": "0x01000000000000000000000000000004000000000000000000000000000000000000000000000000000000000000000000000000000000000000000000200000000000010000000000000000000000000010000000000000000000000000000000000000000000000000000000000000000000000000000000000000000000000000000000000000000000000000000000000000000000000000000020000000020000000000000200000000000000000000000000000008000000000000000000000000000000000000000000000000000000000000000800002000000000000010000000000000000000000000000000000000000000000000000000000000",
      "type": "0x0",
      "transactionHash": "0x916e6e9e2460d1b75cd0974959aa77f56d2c36fe63277be81093d1b2dc9018e4",
      "transactionIndex": "0x1",
      "blockHash": "0x646d7161ce8fcd2c2db2809a41b9edaa85984a54cb6f0f1741489b736303850e",
      "blockNumber": "0x1fa0840",
      "gasUsed": "0xb518",
      "effectiveGasPrice": "0x174876e800",
      "from": "0x9d087fc03ae39b088326b67fa3c788236645b717",
      "to": "0x0b9d5d9136855f6fec3c0993fee6e9ce8a297846",
      "contractAddress": null
    },
    {
      "status": "0x1",
      "cumulativeGasUsed": "0x1ef88",
      "logs": [
        {
          "address": "0x59cc0a2f462aca8b8d2363032b0bbb719c6f0b93",
          "topics": [
            "0x8c5be1e5ebec7d5bd14f71427d1e84f3dd0314c0f7b2291e5b200ac8c7c3b925",
            "0x0000000000000000000000009d087fc03ae39b088326b67fa3c788236645b717",
            "0x0000000000000000000000002e685f521f351781815af1e075b4bbd831693368"
          ],
          "data": "0x00000000000000000000000000000000000000000000000000000000000003e8",
          "blockHash": "0x646d7161ce8fcd2c2db2809a41b9edaa85984a54cb6f0f1741489b736303850e",
          "blockNumber": "0x1fa0840",
          "transactionHash": "0xefceba0e496d93085edb22eb47ab378fd7a479ab766a279b06b9dd469dacaf21",
          "transactionIndex": "0x2",
          "logIndex": "0x2",
          "removed": false
        }
      ],
      "logsBloom": "0x00000000000000000000000000000004000000000000000000000000000000000000000000000000000000000000000000000000000000000000000000200000000000010000000000000000000000000010000000000000000000000000000000000000000000000010000000000000000000000000000000000000000000000000000000000000000000000000000000000000000000000000000020000000020000000000000000000000000000000000000000000008000000000000000000000000000000000000000000000000000000000000080000002000000000000010000000000000000000000000000010000000000000000000000000000000",
      "type": "0x0",
      "transactionHash": "0xefceba0e496d93085edb22eb47ab378fd7a479ab766a279b06b9dd469dacaf21",
      "transactionIndex": "0x2",
      "blockHash": "0x646d7161ce8fcd2c2db2809a41b9edaa85984a54cb6f0f1741489b736303850e",
      "blockNumber": "0x1fa0840",
      "gasUsed": "0xb4f3",
      "effectiveGasPrice": "0x174876e800",
      "from": "0x9d087fc03ae39b088326b67fa3c788236645b717",
      "to": "0x59cc0a2f462aca8b8d2363032b0bbb719c6f0b93",
      "contractAddress": null
    },
    {
      "status": "0x1",
      "cumulativeGasUsed": "0x471f4",
      "logs": [
        {
          "address": "0x59cc0a2f462aca8b8d2363032b0bbb719c6f0b93",
          "topics": [
            "0xddf252ad1be2c89b69c2b068fc378daa952ba7f163c4a11628f55a4df523b3ef",
            "0x0000000000000000000000009d087fc03ae39b088326b67fa3c788236645b717",
            "0x0000000000000000000000004caac735ecfcac34db062d655141c915c810857a"
          ],
          "data": "0x00000000000000000000000000000000000000000000000000000000000003e8",
          "blockHash": "0x6a0aab62bf89a31b9684d4ca3bd9cba9084254f49c201904bf766962fe32c830",
          "blockNumber": "0x1fa0841",
          "transactionHash": "0x2c6fa5157b41509cadd1696bde66e9b75f412d48813ebe32101951e9a2cd608f",
          "transactionIndex": "0x0",
          "logIndex": "0x0",
          "removed": false
        },
        {
          "address": "0x59cc0a2f462aca8b8d2363032b0bbb719c6f0b93",
          "topics": [
            "0xddf252ad1be2c89b69c2b068fc378daa952ba7f163c4a11628f55a4df523b3ef",
            "0x0000000000000000000000004caac735ecfcac34db062d655141c915c810857a",
            "0x0000000000000000000000000000000000000000000000000000000000000000"
          ],
          "data": "0x00000000000000000000000000000000000000000000000000000000000003e8",
          "blockHash": "0x6a0aab62bf89a31b9684d4ca3bd9cba9084254f49c201904bf766962fe32c830",
          "blockNumber": "0x1fa0841",
          "transactionHash": "0x2c6fa5157b41509cadd1696bde66e9b75f412d48813ebe32101951e9a2cd608f",
          "transactionIndex": "0x0",
          "logIndex": "0x1",
          "removed": false
        },
        {
          "address": "0x4caac735ecfcac34db062d655141c915c810857a",
          "topics": [
            "0x696de425f79f4a40bc6d2122ca50507f0efbeabbff86a84871b7196ab8ea8df7",
            "0x0000000000000000000000002e685f521f351781815af1e075b4bbd831693368"
          ],
          "data": "0x00000000000000000000000000000000000000000000000000000000000003e8",
          "blockHash": "0x6a0aab62bf89a31b9684d4ca3bd9cba9084254f49c201904bf766962fe32c830",
          "blockNumber": "0x1fa0841",
          "transactionHash": "0x2c6fa5157b41509cadd1696bde66e9b75f412d48813ebe32101951e9a2cd608f",
          "transactionIndex": "0x0",
          "logIndex": "0x2",
          "removed": false
        },
        {
          "address": "0x0b9d5d9136855f6fec3c0993fee6e9ce8a297846",
          "topics": [
            "0xddf252ad1be2c89b69c2b068fc378daa952ba7f163c4a11628f55a4df523b3ef",
            "0x0000000000000000000000009d087fc03ae39b088326b67fa3c788236645b717",
            "0x0000000000000000000000002e685f521f351781815af1e075b4bbd831693368"
          ],
          "data": "0x00000000000000000000000000000000000000000000000000eb3e0d90afd0c0",
          "blockHash": "0x6a0aab62bf89a31b9684d4ca3bd9cba9084254f49c201904bf766962fe32c830",
          "blockNumber": "0x1fa0841",
          "transactionHash": "0x2c6fa5157b41509cadd1696bde66e9b75f412d48813ebe32101951e9a2cd608f",
          "transactionIndex": "0x0",
          "logIndex": "0x3",
          "removed": false
        },
        {
          "address": "0x0b9d5d9136855f6fec3c0993fee6e9ce8a297846",
          "topics": [
            "0x8c5be1e5ebec7d5bd14f71427d1e84f3dd0314c0f7b2291e5b200ac8c7c3b925",
            "0x0000000000000000000000002e685f521f351781815af1e075b4bbd831693368",
            "0x000000000000000000000000f694e193200268f9a4868e4aa017a0118c9a8177"
          ],
          "data": "0x00000000000000000000000000000000000000000000000000eb3e0d90afd0c0",
          "blockHash": "0x6a0aab62bf89a31b9684d4ca3bd9cba9084254f49c201904bf766962fe32c830",
          "blockNumber": "0x1fa0841",
          "transactionHash": "0x2c6fa5157b41509cadd1696bde66e9b75f412d48813ebe32101951e9a2cd608f",
          "transactionIndex": "0x0",
          "logIndex": "0x4",
          "removed": false
        },
        {
          "address": "0x0b9d5d9136855f6fec3c0993fee6e9ce8a297846",
          "topics": [
            "0xddf252ad1be2c89b69c2b068fc378daa952ba7f163c4a11628f55a4df523b3ef",
            "0x0000000000000000000000002e685f521f351781815af1e075b4bbd831693368",
            "0x0000000000000000000000005724b4cc39a9690135f7273b44dfd3ba6c0c69ad"
          ],
          "data": "0x00000000000000000000000000000000000000000000000000eb3e0d90afd0c0",
          "blockHash": "0x6a0aab62bf89a31b9684d4ca3bd9cba9084254f49c201904bf766962fe32c830",
          "blockNumber": "0x1fa0841",
          "transactionHash": "0x2c6fa5157b41509cadd1696bde66e9b75f412d48813ebe32101951e9a2cd608f",
          "transactionIndex": "0x0",
          "logIndex": "0x5",
          "removed": false
        },
        {
          "address": "0x5724b4cc39a9690135f7273b44dfd3ba6c0c69ad",
          "topics": [
            "0xd0c3c799bf9e2639de44391e7f524d229b2b55f5b1ea94b2bf7da42f7243dddd"
          ],
          "data": "0x0000000000000000000000000000000000000000000000000000000000000020000000000000000000000000000000000000000000000000ccf0a31a221f3c9b0000000000000000000000002e685f521f351781815af1e075b4bbd831693368000000000000000000000000d9a6e10a3d7247725851eaffd7690b8bd93faa570000000000000000000000000000000000000000000000000000000000002aba00000000000000000000000000000000000000000000000000000000000493e0000000000000000000000000000000000000000000000000000000000000000000000000000000000000000000000000000000000000000000000000000000010000000000000000000000000b9d5d9136855f6fec3c0993fee6e9ce8a29784600000000000000000000000000000000000000000000000000eb3e0d90afd0c000000000000000000000000000000000000000000000000000000000000001a00000000000000000000000000000000000000000000000000000000000000220000000000000000000000000000000000000000000000000000000000000024063fc49a839dbc109b59405d58be2aadd4716bea577511f1f1af5f55034cd730400000000000000000000000000000000000000000000000000000000000000600000000000000000000000009d087fc03ae39b088326b67fa3c788236645b7170000000000000000000000002e58d5f253a791e10d51fe4d8d92d0867bd8a4bf00000000000000000000000000000000000000000000000000000000000003e800000000000000000000000000000000000000000000000000000000000000000000000000000000000000000000000000000000000000000000000000000000",
          "blockHash": "0x6a0aab62bf89a31b9684d4ca3bd9cba9084254f49c201904bf766962fe32c830",
          "blockNumber": "0x1fa0841",
          "transactionHash": "0x2c6fa5157b41509cadd1696bde66e9b75f412d48813ebe32101951e9a2cd608f",
          "transactionIndex": "0x0",
          "logIndex": "0x6",
          "removed": false
        },
        {
          "address": "0x2e685f521f351781815af1e075b4bbd831693368",
          "topics": [
            "0xc5f5ab18d19b8e46112af8a6edac567a88c72e33ecb2f629d1c7b0a2996fce05",
            "0x63fc49a839dbc109b59405d58be2aadd4716bea577511f1f1af5f55034cd7304",
            "0x0000000000000000000000009d087fc03ae39b088326b67fa3c788236645b717",
            "0x0000000000000000000000009d087fc03ae39b088326b67fa3c788236645b717"
          ],
          "data": "0x",
          "blockHash": "0x6a0aab62bf89a31b9684d4ca3bd9cba9084254f49c201904bf766962fe32c830",
          "blockNumber": "0x1fa0841",
          "transactionHash": "0x2c6fa5157b41509cadd1696bde66e9b75f412d48813ebe32101951e9a2cd608f",
          "transactionIndex": "0x0",
          "logIndex": "0x7",
          "removed": false
        },
        {
          "address": "0x2e685f521f351781815af1e075b4bbd831693368",
          "topics": [
            "0x825417000078bf0b1ecfe352a3cc7107c8e5c834554392c1d0e62a8d6aa7d19a",
            "0x00000000000000000000000059cc0a2f462aca8b8d2363032b0bbb719c6f0b93",
            "0x0000000000000000000000004caac735ecfcac34db062d655141c915c810857a",
            "0x000000000000000000000000000000000000000000000000de41ba4fc9d91ad9"
          ],
          "data": "0x0000000000000000000000002e58d5f253a791e10d51fe4d8d92d0867bd8a4bf00000000000000000000000000000000000000000000000000000000000003e800000000000000000000000000000000000000000000000000eb3e0d90afd0c0",
          "blockHash": "0x6a0aab62bf89a31b9684d4ca3bd9cba9084254f49c201904bf766962fe32c830",
          "blockNumber": "0x1fa0841",
          "transactionHash": "0x2c6fa5157b41509cadd1696bde66e9b75f412d48813ebe32101951e9a2cd608f",
          "transactionIndex": "0x0",
          "logIndex": "0x8",
          "removed": false
        }
      ],
      "logsBloom": "0x01000000004000000001000000000004000000000000000000000020000000000000000000004000002001000000000000000004010000010000000000200008000000010000000000000008000000000010000000400000000000000000000000100000060001000010002000030802008000840000000000000010000000000000000000000000000000080000000000000021002000000000000020000000020000000000000600000000880000000080000000000008000104000000000000000002000000000000000010000000000080000000080800002000040020000010008000000000040000000000020014000200000000000000000000000000",
      "type": "0x0",
      "transactionHash": "0x2c6fa5157b41509cadd1696bde66e9b75f412d48813ebe32101951e9a2cd608f",
      "transactionIndex": "0x0",
      "blockHash": "0x6a0aab62bf89a31b9684d4ca3bd9cba9084254f49c201904bf766962fe32c830",
      "blockNumber": "0x1fa0841",
      "gasUsed": "0x471f4",
      "effectiveGasPrice": "0x174876e800",
      "from": "0x9d087fc03ae39b088326b67fa3c788236645b717",
      "to": "0x2e685f521f351781815af1e075b4bbd831693368",
      "contractAddress": null
    }
  ],
  "libraries": [],
  "pending": [],
  "returns": {},
  "timestamp": 1716160934,
  "chain": 43113,
  "commit": "d24fcda"
}